{"contracts/Verse.sol":{"Verse":{"abi":[{"inputs":[],"name":"addMinter","outputs":[],"stateMutability":"nonpayable","type":"function"}],"evm":{"bytecode":{"linkReferences":{},"object":"6080604052348015600f57600080fd5b50606580601d6000396000f3fe6080604052348015600f57600080fd5b506004361060285760003560e01c8063031cf58614602d575b600080fd5b00fea2646970667358221220da0cb5d403cd15322367b19244bb84d2e3d2925d91ed9dd5714f87c6585f10d164736f6c63430008090033","opcodes":"PUSH1 0x80 PUSH1 0x40 MSTORE CALLVALUE DUP1 ISZERO PUSH1 0xF JUMPI PUSH1 0x0 DUP1 REVERT JUMPDEST POP PUSH1 0x65 DUP1 PUSH1 0x1D PUSH1 0x0 CODECOPY PUSH1 0x0 RETURN INVALID PUSH1 0x80 PUSH1 0x40 MSTORE CALLVALUE DUP1 ISZERO PUSH1 0xF JUMPI PUSH1 0x0 DUP1 REVERT JUMPDEST POP PUSH1 0x4 CALLDATASIZE LT PUSH1 0x28 JUMPI PUSH1 0x0 CALLDATALOAD PUSH1 0xE0 SHR DUP1 PUSH4 0x31CF586 EQ PUSH1 0x2D JUMPI JUMPDEST PUSH1 0x0 DUP1 REVERT JUMPDEST STOP INVALID LOG2 PUSH5 0x6970667358 0x22 SLT KECCAK256 0xDA 0xC 0xB5 0xD4 SUB 0xCD ISZERO ORIGIN 0x23 PUSH8 0xB19244BB84D2E3D2 SWAP3 0x5D SWAP2 0xED SWAP14 0xD5 PUSH18 0x4F87C6585F10D164736F6C63430008090033 "},"methodIdentifiers":{"addMinter()":"031cf586"}}}}}