{
  "contractName": "Verse",
  "abi": [
    {
      "inputs": [],
      "name": "addMinter",
      "outputs": [],
      "stateMutability": "nonpayable",
      "type": "function"
    }
  ],
  "bytecode": "0x6080604052348015600f57600080fd5b50606d80601d6000396000f3fe6080604052348015600f57600080fd5b506004361060285760003560e01c8063031cf58614602d575b600080fd5b60336035565b005b56fea26469706673582212205cdf92aff8fdae03fc0efb192a76e96d8bda256366d7fc172a29ebf060effff264736f6c63430008130033",
  "immutableReferences": {},
  "source": "//SPDX-License-Identifier: UNLICENSED\n\n// Solidity files have to start with this pragma.\n// It will be used by the Solidity compiler to validate its version.\npragma solidity ^0.8.9;\n\ncontract Verse {\n    function addMinter() public {\n        \n    }\n}",
  "sourcePath": "/home/ubuntu/Workspace/VerseMusic/contracts/Verse.sol",
  "compiler": {
    "name": "solc",
    "version": "0.8.19+commit.7dd6d404.Emscripten.clang"
  },
  "schemaVersion": "3.4.13",
  "updatedAt": "2023-03-03T21:16:30.105Z",
  "devdoc": {
    "kind": "dev",
    "methods": {},
    "version": 1
  },
  "userdoc": {
    "kind": "user",
    "methods": {},
    "version": 1
  }
}