{
  "_format": "hh-sol-artifact-1",
  "contractName": "Verse",
  "sourceName": "contracts/Verse.sol",
  "abi": [
    {
      "inputs": [],
      "name": "addMinter",
      "outputs": [],
      "stateMutability": "nonpayable",
      "type": "function"
    }
  ],
  "bytecode": "0x6080604052348015600f57600080fd5b50606580601d6000396000f3fe6080604052348015600f57600080fd5b506004361060285760003560e01c8063031cf58614602d575b600080fd5b00fea2646970667358221220da0cb5d403cd15322367b19244bb84d2e3d2925d91ed9dd5714f87c6585f10d164736f6c63430008090033",
  "linkReferences": {},
  "deployedLinkReferences": {}
}